:020000040800F2
:10000000A0050020450100085F1E00085B1C0008D9
:100010005D1E000895050008ED20000800000000A6
:10002000000000000000000000000000631E000847
:10003000CF05000800000000611E0008651E0008D2
:100040005F0100085F0100085F0100085F01000810
:100050005F0100085F0100085F0100085F01000800
:100060005F0100085F0100085F01000899050008B2
:100070005F0100085F0100085F0100085F010008E0
:100080005F0100085F0100085F0100085F010008D0
:100090005F0100085F0100085F0100085F010008C0
:1000A0005F0100085F0100085F0100085F010008B0
:1000B0005F010008CD1E00085F0100085F01000815
:1000C0005F0100085F0100085F0100085F01000890
:1000D0005F0100085F0100085F0100085F01000880
:1000E000D10500085F0100085F0100085F010008FA
:1000F0005F0100085F0100085F0100085F01000860
:100100005F0100085F0100085F0100085F0100084F
:100110005F0100085F0100085F0100085F0100083F
:100120005F0100085F0100085F0100085F0100082F
:10013000DFF80CD000F06AF90048004729220008D7
:10014000A00500200648804706480047FEE7FEE776
:10015000FEE7FEE7FEE7FEE7FEE7FEE7FEE7FEE777
:10016000CB1E000831010008202A04DB203A21FAC6
:1001700002F00021704721FA02F3D040C2F12002C0
:100180009140084319467047D2B201E000F8012BB4
:10019000491EFBD270470022F6E710B513460A4607
:1001A00004461946FFF7F0FF204610BD2DE9FE4F2B
:1001B00081EA030404F0004421F0004100944FF070
:1001C000000B23F0004350EA01045ED052EA03041E
:1001D0005BD0C3F30A54C1F30A552C44A4F2F334A0
:1001E0000194A0FB0254C1F3130141F48011C3F345
:1001F000130343F4801301FB024400FB034E840A03
:10020000970A44EA815447EA8357A4FB076802959A
:100210008D0A05FB07854FEA932C04FB0C54270538
:10022000029D4FEA065847EA1637B5EB08056EEB14
:10023000070C870E920E47EA811742EA8312A7FB4A
:100240000201B6EB0B0164EB00042B0D43EA0C3307
:100250005E1844EB1C50DA465146E7FB0201C5F339
:1002600013044FEA0B3343EA14534FEA0432019C60
:1002700043EA0603A4F10C040294009CCDE900B407
:1002800000F075F803B0BDE8F08F00200146F9E7F3
:100290000EB540F2334102910021CDE900110A462A
:1002A0000B4600F064F803B000BD01F0004330B429
:1002B00021F0004150EA010206D00A0DA2F5607259
:1002C000C1F31301002A02DC30BC00207047440F48
:1002D00044EAC104C100E01830BC00EBC250AFF3E7
:1002E00000800029A8BF7047401C490008BF20F0CB
:1002F0000100704710B4B0FA80FC00FA0CF050EA2C
:10030000010404BF10BC704749B1CCF1200421FAAC
:1003100004F411FA0CF118BF012121430843A3EBA7
:100320000C01CB1D4FEA00614FEA102042BF0020B4
:1003300010BC704700EBC35010440029A4BF10BC90
:100340007047401C490008BF20F0010010BC7047F6
:1003500010B5141E73F1000408DA401C41F10001CD
:1003600092185B411A4301D120F0010010BD2DE924
:10037000F04D92469B4611B1B1FA81F202E0B0FA1B
:1003800080F22032904600F053F804460F4640EACF
:100390000A0041EA0B0153465A46084313D011465E
:1003A00053EA010019D0C8F140025046FFF7DCFEC5
:1003B00005460E4650465946424600F039F8084375
:1003C00005D0012004E020463946BDE8F08D00202C
:1003D000054346EAE0762C4337430A986305E40A6E
:1003E000A0EB08000022FD0A44EA47540A3002D577
:1003F00000200146E9E7010510196941DDE90845DA
:1004000000196941BDE8F04DA2E70000064C074D18
:1004100006E0E06840F0010394E8070098471034D4
:10042000AC42F6D3FFF788FE44230008642300089B
:10043000202A04DB203A00FA02F1002070479140A4
:10044000C2F1200320FA03F31943904070470000E3
:1004500070B5044600688168C943C90717D181682F
:1004600021F00101816000F057FD05460AE000BF60
:1004700000F052FD401B022804D920688068C04368
:10048000C00706D020688068C043C007F0D00020B5
:1004900070BDA06A40F01000A062E06A40F0010068
:1004A000E062012070BD10B50146406A826A12F018
:1004B000500F05D0006A026BBDE810400846104797
:1004C000816A41F40071816201688968C1F3424127
:1004D00007290CD1017B51B9816A21F480718162B5
:1004E000816AC90403D4816A41F00101816200F08C
:1004F000F9F810BD10B5406A816A41F0400181628F
:10050000C16A41F00401C16200F0EEF810BD10B5FF
:10051000406A00F0E8F810BDF8B5002604460096E1
:1005200000688168C943C9072DD0816841F0010185
:100530008160164816490068B0FBF1F000E0401EEB
:1005400000900028FBD100F0E7FC054616E000BF54
:1005500000F0E2FC401B022810D920688068C043EC
:10056000C0070BD0A06A40F01000A062E06A40F023
:100570000100E06284F824600120F8BD20688068F2
:10058000C043C007E4D10020F8BD00003C000020BB
:1005900040420F00FEE70000014800F005BA0000ED
:1005A0008C00002030B590F840500124AC40C56B61
:1005B0006C60046863604368102B036803D0996023
:1005C0000068C26030BD9A600068C16030BD70478D
:1005D00010B54FF4006000F091FBBDE810404FF4FF
:1005E000805000F08BBB7047F8B50024009490F861
:1005F00024202546012A12D0012280F824204A68AE
:100600001F23072A0DD20668776B521E02EB820267
:1006100093409F430B6893401F43776319E0022088
:10062000F8BD06680D2A0AD2376BD21F02EB820290
:1006300093409F430B6893401F43376309E0F76A79
:100640000D3A02EB820293409F430B6893401F4395
:10065000F7620A68072306680A2A0AD3F7680A3A83
:1006600002EB420293409F438B6893401F43F76025
:1006700008E0376902EB420293409F438B68934046
:100680001F4337610A68102A01D0112A20D1124B6A
:1006900002689A4217D193681B0219D4936843F4F5
:1006A000000393600968102912D10C490C4A0968AB
:1006B000B1FBF2F101EB8101490000E0491E00911C
:1006C0000029FBD104E0816A41F02001816201240C
:1006D00080F824502046F8BD002401403C00002052
:1006E00040420F0070477047704700002DE9F0410D
:1006F00004004FF000057FD0A06A002628B9E6620A
:1007000084F82460204600F081F82046FFF7A0FE20
:10071000A16AC90600D420B1A06A40F01000A0620E
:100720006AE0A16A21F4885141F00201A1623349D3
:1007300023688B42E16904D1B1F5402F01D14FF418
:100740000021277B4FF4807C41EA470261680A431D
:10075000A168614508D0012906D0002194F814E071
:10076000BEF1010F02D00AE06146F7E7C7B1A76A00
:1007700047F02007A762E76A47F00107E7625F6872
:1007800027F469470F435F60236899681C4F39401D
:1007900011439960A16861450BD0012909D00CE093
:1007A000DFF860E0A7690EEB47370F4347F40061BD
:1007B000E5E7218A0D05A5F580152168CB6A23F4AC
:1007C00070032B43CB62216889680F4B194091421B
:1007D00008D1E662A16A21F0020141F00101A162A3
:1007E000BDE8F081A06A20F0020040F01000A06295
:1007F000E06A40F00100E0620120F1E7003C0140C6
:10080000FDF7E1FF00E0FFFFFE0E1FFF70B586B0B1
:1008100000260546009601960296039600681A493E
:1008200088422FD11949886940F40070886188692D
:1008300000F400700490886940F0040088618869C1
:10084000694600F004000490E0200090032001902D
:100850000F4800F05FFA104C0E48C4E900068020F3
:10086000C4E9026080002061800060612020A061F6
:10087000C001E061204600F0BBF908B1FFF7B3FE0C
:100880002C62656206B070BD002401400010024079
:1008900000080140080002408C0000202DE9F047CC
:1008A000894604463B4900683B4F0E1D90468842EE
:1008B00001D0B84207D1306810F4702F03D0012561
:1008C0002846BDE8F08794F8240001280CD00120C8
:1008D00084F824002046FFF71FFE05004FF00000BB
:1008E00004D084F82400EBE70220EAE7A16A40F68E
:1008F0000162914341F48071A1622168B94218D12B
:10090000326812F4702F14D0A16A41F48011A162F0
:100910003168490505D5A16A21F4005141F480519F
:10092000A162A16AC9040AD5E16A21F00601E16267
:1009300006E0A26A22F48012A2624968E9E7E06256
:1009400084F82400216A15488862216A1448C86224
:10095000216A1448086321686FF00200086020686B
:10096000816841F480718160216843464A464C3178
:10097000206A00F07BF920688168C1F342410729B1
:10098000816803D041F48011816099E741F4A001AE
:10099000FAE700000024014000280140A7040008F5
:1009A0000F050008F50400082DE9F05FC16B0A6827
:1009B00001680B68046C4FF0040808FA04F8844DD1
:1009C000844E854FDFF814C2DFF81492DFF814A2CA
:1009D000DFF814B2DFF814E218EA020F65D05FEA1C
:1009E000437862D50A68920603D40A6822F00402AA
:1009F0000A60DFF8F0814FF48062016808F11408A2
:100A000013011402414524D9A9420DD0B1420FD09F
:100A1000B9421AD0614515D0494515D0514501D18B
:100A2000120312E0594501D104220EE0714501D1B3
:100A300040220AE06D4D1435A94206D06B4A283297
:100A4000914201D11A4600E022466749091F0A6017
:100A500029E0A94213D0B14215D0B94220D0614556
:100A60001BD049451BD0514502D14FF4800217E0FD
:100A7000414502D14FF0806212E0594501D1042274
:100A80000EE0714501D140220AE0584D1435A942CB
:100A900006D0564A2832914201D11A4600E0224639
:100AA0004B4908394A60C16A71E04FF0020808FA00
:100AB00004F818EA020F70D05FEA83786DD50A68EF
:100AC000920606D40A6822F00A020A60012180F820
:100AD0002110DFF810814FF40072016808F114084A
:100AE00013011402414524D9A9420DD0B1420FD0BF
:100AF000B9421AD0614515D0494515D0514501D1AB
:100B0000120312E0594501D102220EE0714501D1D4
:100B100020220AE0354D1435A94206D0334A283246
:100B2000914201D11A4600E022462F49091F0A606E
:100B300029E0A94213D0B14215D0B94220D0614575
:100B40001BD049451BD0514502D14FF4001217E08C
:100B5000414502D14FF0007212E0594501D1022205
:100B60000EE0714501D120220AE0204D1435A94242
:100B700006D01E4A2832914201D11A4600E0224690
:100B8000134908394A60002180F82010816A002941
:100B90001CD0BDE8F05F0847FFE70825A5401542D7
:100BA00014D01A0712D50A6822F00E020A6090F8D3
:100BB0004020C36B012101FA02F25A60816380F880
:100BC0002110002180F82010016BE0E7BDE8F09FC4
:100BD000080002401C000240300002404400024075
:100BE000580002406C000240080402401C0402400D
:100BF00030B560B11A4B026814219A4209D2194BE0
:100C00001344B3FBF1F18900016417490AE00120A4
:100C100030BD134B5B421344B3FBF1F18900016417
:100C20000F490839C163022180F82110136843F687
:100C3000F0718B43F0E901142143D0E902452C43C4
:100C400021430469214344692143846921431943B1
:100C5000116000214163012242770177084630BDCF
:100C600008040240F8FFFDBF0000024070B50446D2
:100C700090F82000002501280CD0012084F82000E5
:100C800094F821600020012E06D084F8200002256F
:100C9000284670BD022070BD022684F82160A06342
:100CA0002068066826F0010606602046FFF77AFCF9
:100CB000E06A00282068016802D041F00E0106E0D9
:100CC00021F0040101602068016841F00A0101601F
:100CD0002068016841F001010160D9E710B5B0F565
:100CE000006F06D103A001F003FABDE8104001F047
:100CF00013BB10BD616E7869610D0A00044910B51F
:100D00000A68024202D00860FFF7E8FF10BD000049
:100D1000140401402DE9F84FDFF8C891002409F1CF
:100D2000040A0AF1040B23460F270BF1040ED1E04D
:100D30000125A54006EA0502AA4276D1DFF8A8C13E
:100D40004E68A6EB0C0866452BD00DDC032E34D084
:100D500005DC36B3012E19D0022E2FD11BE0112E47
:100D600016D0122E2AD119E0B8F5881F19D006DC4A
:100D7000B8F5803F15D0B8F5801F1FD111E0B8F548
:100D8000001F0ED0B8F5041F18D10AE0CB6815E09B
:100D9000CB681B1D12E0CB6808330FE0CB680C3327
:100DA0000CE08B682BB1012B4FF0080303D0456199
:100DB00004E0042302E0056100E00023FF2A01D8DB
:100DC000064601E000F104064FEA840501D9A5F1C9
:100DD0002005D6F8008007FA05FC28EA0C0803FA7B
:100DE00005F548EA0508C6F800804D68ED0070D5A5
:100DF0003E4DAE6946F00106AE61AD6924F00306D2
:100E000005F0010500953A4D06EB050CDCF808509D
:100E1000A607360F07FA06F825EA0805DFF8D4809A
:100E2000404503D14FF0000825E052E0DFF8C880CC
:100E3000404502D14FF001081DE0DFF8C080404579
:100E400002D14FF0020816E0DFF8B480404502D12D
:100E50004FF003080FE0DFF8AC80404502D14FF0BF
:100E6000040808E0DFF8A080404502D14FF00508F3
:100E700001E04FF0060808FA06F848EA0508CCF841
:100E800008804D68D9F80060ED034D4601D5164342
:100E900000E096432E604D68DAF80060AD035546D9
:100EA00001D5164300E096432E604D68DBF80060E4
:100EB000ED025D4601D5164300E096432E604D6875
:100EC000DEF80060AD02754601D5164300E096439A
:100ED0002E60641C0A681646E2407FF429AFBDE824
:100EE000F88F0000000401400000111000100240C3
:100EF0000000014000080140000C014000100140CA
:100F00000014014000180140001C014080680840A6
:100F100000D0012070470000014880687047000041
:100F200030000020024881680278114481607047D7
:100F300030000020074810B5016841F01001016041
:100F4000032000F075F8002000F006F800F024F807
:100F5000002010BD0020024070B50D4D04464FF436
:100F60007A712878B1FBF0F00A490968B1FBF0F01A
:100F700000F062FB48B9102C07D200222146501E17
:100F800000F036F800206C6070BD012070BD0000DC
:100F9000300000203C0000200C4808B5816941F079
:100FA00001018161816901F001010091C16941F094
:100FB0008051C161C06900F08050009004484168D0
:100FC00021F0E06141F00071416008BD0010024075
:100FD00000000140002809DB00F01F0201219140C0
:100FE0004009800000F1E020C0F8001170470000C7
:100FF000F0B40E4B1B680C46C3F30223C3F1070584
:10100000042D00D90425191D072901D2002300E071
:10101000DB1E012606FA05F1491E214099409E403B
:10102000761E16403143F0BC01F06AB80CED00E0CA
:10103000064900F0070208684FF6FF03184040EA2F
:101040000220034A10430860704700000CED00E0E6
:101050000000FA052DE9F84305460078354CC00735
:1010600054D0E0690026C00008D4E06940F0805008
:10107000E061E069012600F0805000902E48016890
:10108000C90512D40168804641F480710160FFF700
:1010900043FF074605E000BFFFF73EFFC01B642883
:1010A00023D8D8F80000C005F6D5206A10F44070A7
:1010B00021D0A98801F4407181421CD0206A1F49C7
:1010C000012220F440700A6000220A602062C007FA
:1010D00011D0FFF721FF074641F2883808E000BF32
:1010E000FFF71AFFC11B414502D90320BDE8F88371
:1010F000206A8007F4D5206A696820F440700843AC
:1011000020621EB1E06920F08050E06128788007FD
:1011100005D56068A96820F44040084360602878DD
:10112000C00605D56068696920F4800008436060E6
:101130000020DBE700100240007000404004424203
:101140002DE9F0470F46050061D0434E306800F0AE
:101150000700B84209D2306820F0070038433060F9
:10116000306800F00700B84251D128683B4C810735
:1011700012D5400703D5606840F4E06060602878CD
:10118000000703D5606840F4605060606068A9683B
:1011900020F0F000084360602878C00728D0686815
:1011A000012810D02168022810D0890700292EDAE2
:1011B000616821F0030101436160FFF7ADFE8046E5
:1011C00041F288390DE021688903EFE78901EDE7F5
:1011D000FFF7A2FEA0EB0801494502D90320BDE8B4
:1011E000F0876068696800F00C00B0EB810FEFD108
:1011F000306800F00700B8420BD9306820F00700D3
:1012000038433060306800F00700B84201D0012058
:10121000E5E72878400705D56068E96820F4E060D4
:10122000084360602878000706D56068296920F4C3
:10123000605040EAC100606000F038F86168084A18
:10124000C1F30311515CC8400649086006480068B4
:10125000FFF782FE0020C2E700200240001002409B
:101260002C2300083C0000203400002004480549DD
:1012700000684968044AC1F30221515CC8407047C4
:101280003C000020001002403C23000804480549AF
:1012900000684968044AC1F3C221515CC8407047E4
:1012A0003C000020001002403C23000812A185B041
:1012B0000FC98DE80F0014A0144A0068049051680B
:1012C000134801F00C03042B10D0082B0ED1C1F3EE
:1012D0008343C9031DF803000AD5516804AAC1F36A
:1012E0004041515C0A4A5043B0FBF1F005B07047F1
:1012F00008494843FAE70000020304050607080905
:101300000A0B0C0D0E0F101001020000001002401D
:1013100000127A0000093D002DE9F84F040070D05A
:101320002078C04DC00749D06868C0F3810001280B
:1013300007D06868C0F38100022809D16868C0033B
:1013400006D52868800339D560680028E7D035E0E5
:101350006068B0F5803F0BD010B1B0F5A02F11D070
:10136000286820F480302860286820F4802002E07B
:10137000286840F480302860606890B1FFF7CCFDA9
:1013800006460AE0286840F480202860F0E700BFA5
:10139000FFF7C2FD801B642873D828688003F7D547
:1013A0000CE0FFF7B9FD064605E000BFFFF7B4FD0E
:1013B000801B6428F0D828688003F7D420789A4EE0
:1013C00080074FF001094FF0000839D5686810F028
:1013D0000C0F07D06868C0F38100022809D1686843
:1013E000C00306D42868800714D52069012808D1D5
:1013F00010E02069B0B1C6F80090FFF78DFD0746F8
:1014000005E00AE1FFF788FDC01B0228C4D8286860
:101410008007F7D52868616920F0F80040EAC1002C
:1014200028600DE0C6F80080FFF776FD074604E06F
:10143000FFF772FDC01B022823D828688007F7D465
:10144000207800072CD57948A169D9B1C0F800905F
:10145000FFF762FD074604E0FFF75EFDC01B0228B0
:101460000FD8686A8007F7D571484FF4FA510068C1
:10147000B0FBF1F0009000BF0098411E0091FAD23D
:101480000EE080E0C0F80080FFF746FD074604E06C
:10149000FFF742FDC01B022875D8686A8007F7D4A1
:1014A0002078400760D5E8690027C00008D4E869C3
:1014B00040F08050E861E869012700F0805000901A
:1014C0005C480168C90513D40168834641F4807102
:1014D0000160FFF721FD824606E000BFFFF71CFD1B
:1014E000A0EB0A0064284ED8DBF80000C005F5D553
:1014F000E06801280AD008B1052813D0286A20F036
:1015000001002862286A20F0040002E0286A40F006
:1015100001002862E06841F2883B98B1FFF7FCFCCB
:1015200082460BE0286A40F004002862EEE700BF24
:10153000FFF7F2FCA0EB0A0159455AD8286A800748
:10154000F6D50CE0FFF7E8FC824605E0FFF7E4FC87
:10155000A0EB0A0159454CD8286A8007F6D41FB180
:10156000E86920F08050E861E06988B36968C1F3F8
:101570008101022944D00228C6F8608004D0FFF718
:10158000CBFC044638E034E0FFF7C6FC074604E035
:10159000FFF7C2FCC01B02282BD828688001F7D4B3
:1015A000206AB0F5803F05D16868A16820F400305A
:1015B00008436860D4E908010843696821F474119C
:1015C00008436860C6F86090FFF7A6FC044606E092
:1015D00025E000BFFFF7A0FC001B022809D82868FF
:1015E0008001F7D51BE000BFFFF796FC001B022827
:1015F00002D90320BDE8F88F28688001F4D40EE0FA
:101600000128F7D06868226A00F48031914204D141
:10161000616A00F47010884201D00120EAE70020DE
:10162000E8E700000010024000004242800442420D
:101630003C0000200070004010B5401EB0F1807FDB
:1016400001D3012010BD4FF0E02460610F2160172D
:1016500000F056FD0020A06107202061002010BD91
:101660007047704770B590F83C20012A2CD00124B7
:1016700080F83C40022280F83D2003685A689D684B
:1016800022F070060A6832435A60104B02689A4290
:101690000ED00F4B9A420BD0B2F1804F08D00D4BB9
:1016A0009A4205D00C4B9A4202D00C4B9A4204D17C
:1016B000496825F080031943916080F83D4000217E
:1016C00080F83C10084670BD022070BD002C01401F
:1016D000003401400004004000080040000C0040BD
:1016E00010B5040003D094F83D0010B107E00120CC
:1016F00010BD002084F83C00204600F01FF80220B6
:1017000084F83D00211D206800F0E6FB012084F8EC
:10171000460084F83E0084F83F0084F8400084F8D6
:10172000410084F8420084F8430084F8440084F8BF
:10173000450084F83D00002010BD000008B5006899
:101740000B49884212D10B48C16941F00201C161C5
:10175000C069002200F00200009002211D20FFF766
:1017600047FCBDE808401D20FFF734BC08BD000061
:10177000000400400010024090F83D10012901D003
:1017800001207047022180F83D100168CA6842F0CC
:101790000102CA6000680E4988420ED00D49884295
:1017A0000BD0B0F1804F08D00B49884205D00B49CF
:1017B000884202D00A49884204D1816801F00701B9
:1017C000062903D0016841F0010101600020704743
:1017D000002C01400034014000040040000800409B
:1017E000000C004070B5044690F83C00012817D06A
:1017F000012584F83C50022084F83D00206882686E
:1018000022F0770222F47F4282600868502830D0AC
:101810000DDC20284DD005DC98B310283BD148E0E2
:10182000022070BD302844D0402834D139E06028EF
:1018300028D0702806D0B0F5805F2CD0B0F5005FBE
:1018400029D10AE0CB68D1E90121206800F08AFBA8
:101850002068816841F0770109E0CB68D1E9012176
:10186000206800F07FFB2068816841F4804181603E
:1018700011E0CA684968206800F086FB50212068A2
:1018800007E016E0CA684968206800F08EFB602116
:10189000206800F071FB84F83D50002084F83C0083
:1018A00070BDCA684968206800F06EFB402120685E
:1018B000EFE7226801461046EBE7704770B5044633
:1018C000006801694FF00005C943890715D4C16854
:1018D000C943890711D4E91E0161012020772068DE
:1018E00080698007204602D0FFF7E7FF04E000F0A0
:1018F00098F8204600F096F8257720680169C943DA
:10190000490717D4C168C943490713D46FF00401CC
:101910000161022020772068806910F4407F204612
:1019200002D0FFF7CAFF04E000F07BF8204600F089
:1019300079F8257720680169C943090716D4C16879
:10194000C943090712D46FF0080101610420207710
:101950002068C0698007204602D0FFF7AEFF04E090
:1019600000F05FF8204600F05DF8257720680169F7
:10197000C943C90617D4C168C943C90613D46FF057
:1019800010010161082020772068C06910F4407FB1
:10199000204602D0FFF791FF04E000F042F8204615
:1019A00000F040F8257720680169C943C90708D1CC
:1019B000C168C943C90704D1891E0161204600F0EE
:1019C00033F820680169C943090609D4C168C943CD
:1019D000090605D46FF0800101612046FFF740FE43
:1019E00020680169C943490609D4C168C943490649
:1019F00005D46FF040010161204600F045F82068F1
:101A00000169C94389060BD4C168C943890607D453
:101A10006FF0200101612046BDE87040FFF721BE54
:101A200070BD70477047000010B5006814498842C7
:101A300024D1144801220169491C0A23B1FBF3F4A3
:101A4000016103FB1413027003B982701923B1FB07
:101A5000F3F403FB141303B942706423B1FBF3F4F2
:101A600003FB141303B9C2704FF47A73B1FBF3F4A0
:101A700003FB1411002901D10271016110BD0000A6
:101A80000004004000000020704770B5040004D03E
:101A900094F83D00002510B106E0012070BD84F8E7
:101AA0003C50204600F022F8242084F83D002068B5
:101AB000C16821F40051C160204600F089FA206815
:101AC000016921F4904101612068416921F02A01F6
:101AD00041612068C16841F40051C1602564202043
:101AE00084F83D0084F83E00002070BD70B586B0DB
:101AF0000024009401940294039403682648254E20
:101B0000022103220515B3421ED1836943F48043A9
:101B10008361836903F480430493836943F004037E
:101B2000836180691D4E00F0040004900802CDE935
:101B30000001039269463046FFF7ECF8CDE9005406
:101B400069463046029420E0154EB3421FD1C36966
:101B500043F48023C361C36903F48023049383693E
:101B600043F0080383618069CDE9005100F008006B
:101B7000CDE903200B4D69462846FFF7CBF8E81462
:101B8000CDE90004694628460294FFF7C3F806B081
:101B900070BD000000380140001002400008014004
:101BA00000480040000C01402DE9F843044690F83D
:101BB0003D001F4616460D4620284CD1C5B1BEB18A
:101BC00094F83C00012846D0012084F83C004FF0F6
:101BD0000008C4F84080212084F83D00FFF79CF9FC
:101BE000A6848146E684A068B0F5805F03D004E057
:101BF0000120BDE8F883206928B12E465FF000057A
:101C000084F83C800EE00026FAE78021204600F0B0
:101C10003BFAA0B9AEB116F8010B21684860E08C20
:101C2000401EE084E08C4B464FF0000200970028F5
:101C3000EBD14FF04001204600F026FA30B10320EE
:101C4000D7E735F8020BC0F30800E6E7202084F858
:101C50003D000020CDE70220CBE7FEE73EB50021A6
:101C60001C48009101911A4A02910260921582600B
:101C700001240473017503254FF460220561C261DC
:101C80004160FEF733FD08B1FEF7ADFC0720CDE95A
:101C9000000469460F480294FEF7A6FC08B1FEF75F
:101CA000A2FC062000900220019069460948FEF738
:101CB0009BFC08B1FEF797FC0520CDE900056946BD
:101CC0000448FEF791FC002801D0FEF78CFC3EBDD5
:101CD000002401405C000020094808B5416941F03A
:101CE000010141614069002200F0010000901146AD
:101CF0000B20FFF77DF9BDE808400B20FFF76AB91C
:101D00000010024000B585B0002003901A48816998
:101D100041F020018161816901F020010491816914
:101D200041F004018161816901F00401049181693C
:101D300041F008018161816901F008010491816924
:101D400041F0100181618069694600F01000049043
:101D50004FF4C050009009480190012002900848BB
:101D6000FEF7D8FF002211462820FFF741F928206E
:101D7000FFF730F905B000BD00100240000021104F
:101D80000010014010B586B000241748009401945B
:101D900002940394049413490594016040F2CF2106
:101DA000C0E901140921C0E9031480218161FFF712
:101DB00097FC08B1FEF717FC4FF48050009069467D
:101DC0000948FFF70FFD08B1FEF70DFC049404A9C4
:101DD00005480594FFF746FC002801D0FEF703FCF8
:101DE00006B010BD00040040D00000200C4810B523
:101DF0000A4901604FF4E1314160002181600C2209
:101E0000C160C0E904128161C161FFF73EFE002894
:101E100003D0BDE81040FEF7E6BB10BD003801401E
:101E2000180100200C4810B50A4901604FF46131D7
:101E30004160002181600C22C160C0E9041281610F
:101E4000C161FFF722FE002803D0BDE81040FEF775
:101E5000CABB10BD004800405C010020FEE770478F
:101E600070477047FFF75EB830B595B028216846D7
:101E7000FEF791F914210AA8FEF78DF918210FA891
:101E8000FEF789F901210804CDE90010002402942D
:101E900002250491CDE907504FF4E01009906846FF
:101EA000FFF73AFA0F20CDE90A056802CDE90C40A8
:101EB00002210AA80E94FFF743F9A80311900F9589
:101EC0000FA8FFF7C7F815B030BD70470148FFF7FE
:101ED000F5BC0000D0000020F0B502681C4B1D4D81
:101EE0001D4E1E4F1E4C4FF0804C984209D0A04210
:101EF00007D0604505D0A84203D0B04201D0B84217
:101F000004D122F0700E4A6842EA0E02984209D0CB
:101F1000A04207D0604505D0A84203D0B04201D00E
:101F2000B84203D122F44075CA682A434D6922F0B1
:101F300080022A4302608A68C2620A68826298420A
:101F400001D0A04201D10969016301214161F0BDC5
:101F5000002C01400004004000080040000C00403C
:101F60000034014010B5846842EA032224F47F441F
:101F70000A432243826010BD826822F070020A4345
:101F800042F007018160704710B5036A046A24F0CB
:101F900001040462846924F0F00444EA021423F08A
:101FA0000A020A438461026210BD10B5036A23F07D
:101FB000100303628369046A23F4704343EA023224
:101FC00024F0A00343EA01118261016210BD000008
:101FD00070B5044600680169E26821F4405111437C
:101FE00001612169A0680843616908432168CA68E2
:101FF00041F20C639A430243CA6020684169A269B6
:1020000021F44071114341611E492068884202D188
:10201000FFF73CF901E0FFF729F900EBC00101EB04
:102020000012606864218000B2FBF0F3B3FBF1F3AF
:102030006FF018067343B2FBF0F5B2FBF0F605EB58
:102040008305322303EB0515B5FBF1F5B6FBF1F67D
:1020500005F0F00505EB0615B2FBF0F6B2FBF0F06B
:10206000B0FBF1F06FF01802504306EB800003EB79
:102070000010B0FBF1F0216800F00F0028448860E8
:1020800070BD0000003801402DE9F0419846174628
:102090000E460446069D1DE0681C1BD02DB1FEF7C0
:1020A0003BFFA0EB0800A84214D92068C16821F4C6
:1020B000D071C1602068416921F001014161202097
:1020C00084F83D0084F83E00002084F83C000320A2
:1020D000BDE8F0812068006836EA000004D00020E6
:1020E000B842D9D00020F3E70120F9E7FEE700006D
:1020F000014A024900F023B8612100084000002095
:102100000907090E002804DB00F1E02080F8001424
:10211000704700F00F0000F1E02080F8141D7047B8
:1021200002E008C8121F08C1002AFAD170477047A0
:10213000002001E001C1121F002AFBD170472DE9E8
:10214000F04116460F460446002503E03946B047E5
:10215000641C6D1C20780028F8D12846BDE8F08169
:1021600038B504468DF800000A230122694602486A
:10217000FFF71AFD204638BD1801002070B54FF456
:1021800080512748FEF7C2FE2649002220244D79BF
:10219000282D27D00DDC202D1AD0242D1DD1E8B1FB
:1021A00001281AD148890B89184448810A813620B0
:1021B00034E02423322D21D0362D0ED10C89641C1D
:1021C000A4B20C81322C08D90A81012825D01EE046
:1021D000002802D1322048710A8170BD0889401C54
:1021E000088170BD488940F2DC53984201D9022031
:1021F00001E008B10120C8604A810CE00D896D1C26
:10220000ADB20D81322DECD90A81012803D000280E
:10221000E7D14B7170BD4C7170BD2820487170BD05
:10222000001001400000002030492F480860FEF7F0
:1022300081FEFFF719FEFFF765FDFFF74DFDFFF784
:10224000A1FDFFF7D3FDFFF709FDFFF7EBFD2848E0
:10225000FFF792FA00F060F8244C0025143C207837
:1022600000B12570607810B3A079F8B1DFF87C80F8
:10227000204FDFF88490DFF884A0002608F10408DE
:1022800057F82600FEF704F84A465346FDF78EFF3E
:10229000FEF70BF848F82600761C062EF0DB1349F3
:1022A0000A231822091D1648FFF77EFC6570A078E6
:1022B00010B1FFF763FFA570E07800B1E5702079F9
:1022C00000B12571E068022803D10EA0E560FFF798
:1022D0000FFFE0680128C2D1E560A07910B10020AD
:1022E000A071BCE70120FBE777BE8F3F1400002000
:1022F000D000002044000020EB03FCE30C684A3FC0
:10230000180100206C6F6E67312E35206576656E82
:1023100074200D0A00000000062202490248FEF760
:10232000BDBA0000440000205C0000200000000056
:102330000000000001020304060708090000000075
:102340000102030464230008000000204400000090
:1023500020210008A8230008440000205C0500009C
:1023600030210008000000000020000000000000F4
:102370000000000000000000000000003BDF0740FC
:1023800077BE8F3F3BDF07400000000000000000E9
:10239000000000000100000010000000000000002C
:0823A0000024F400000000001D
:0400000508000131BD
:00000001FF
